{
  "_format": "hh3-artifact-1",
  "contractName": "TokenContract",
  "sourceName": "contracts/tokenContract.sol",
  "abi": [
    {
      "inputs": [
        {
          "internalType": "string",
          "name": "_tokenName",
          "type": "string"
        },
        {
          "internalType": "string",
          "name": "_tokenSymbol",
          "type": "string"
        }
      ],
      "stateMutability": "nonpayable",
      "type": "constructor"
    },
    {
      "anonymous": false,
      "inputs": [
        {
          "indexed": true,
          "internalType": "address",
          "name": "owner",
          "type": "address"
        },
        {
          "indexed": true,
          "internalType": "address",
          "name": "spender",
          "type": "address"
        },
        {
          "indexed": false,
          "internalType": "uint256",
          "name": "amount",
          "type": "uint256"
        }
      ],
      "name": "Approve",
      "type": "event"
    },
    {
      "anonymous": false,
      "inputs": [
        {
          "indexed": true,
          "internalType": "address",
          "name": "sender",
          "type": "address"
        },
        {
          "indexed": true,
          "internalType": "address",
          "name": "reciepient",
          "type": "address"
        },
        {
          "indexed": true,
          "internalType": "uint256",
          "name": "amount",
          "type": "uint256"
        }
      ],
      "name": "Transfer",
      "type": "event"
    },
    {
      "anonymous": false,
      "inputs": [
        {
          "indexed": true,
          "internalType": "address",
          "name": "owner",
          "type": "address"
        },
        {
          "indexed": true,
          "internalType": "address",
          "name": "spender",
          "type": "address"
        },
        {
          "indexed": false,
          "internalType": "uint256",
          "name": "amount",
          "type": "uint256"
        }
      ],
      "name": "TransferFrom",
      "type": "event"
    },
    {
      "inputs": [
        {
          "internalType": "address",
          "name": "owner",
          "type": "address"
        },
        {
          "internalType": "address",
          "name": "spender",
          "type": "address"
        }
      ],
      "name": "allowance",
      "outputs": [
        {
          "internalType": "uint256",
          "name": "",
          "type": "uint256"
        }
      ],
      "stateMutability": "view",
      "type": "function"
    },
    {
      "inputs": [
        {
          "internalType": "address",
          "name": "spender",
          "type": "address"
        },
        {
          "internalType": "uint256",
          "name": "amount",
          "type": "uint256"
        }
      ],
      "name": "approve",
      "outputs": [],
      "stateMutability": "nonpayable",
      "type": "function"
    },
    {
      "inputs": [
        {
          "internalType": "address",
          "name": "tokenHolder",
          "type": "address"
        }
      ],
      "name": "balanceOf",
      "outputs": [
        {
          "internalType": "uint256",
          "name": "",
          "type": "uint256"
        }
      ],
      "stateMutability": "view",
      "type": "function"
    },
    {
      "inputs": [
        {
          "internalType": "address",
          "name": "reciever",
          "type": "address"
        },
        {
          "internalType": "uint256",
          "name": "amount",
          "type": "uint256"
        }
      ],
      "name": "mint",
      "outputs": [],
      "stateMutability": "nonpayable",
      "type": "function"
    },
    {
      "inputs": [],
      "name": "name",
      "outputs": [
        {
          "internalType": "string",
          "name": "",
          "type": "string"
        }
      ],
      "stateMutability": "view",
      "type": "function"
    },
    {
      "inputs": [],
      "name": "symbol",
      "outputs": [
        {
          "internalType": "string",
          "name": "",
          "type": "string"
        }
      ],
      "stateMutability": "view",
      "type": "function"
    },
    {
      "inputs": [
        {
          "internalType": "address",
          "name": "recipient",
          "type": "address"
        },
        {
          "internalType": "uint256",
          "name": "amount",
          "type": "uint256"
        }
      ],
      "name": "transfer",
      "outputs": [],
      "stateMutability": "nonpayable",
      "type": "function"
    },
    {
      "inputs": [
        {
          "internalType": "address",
          "name": "owner",
          "type": "address"
        },
        {
          "internalType": "address",
          "name": "spender",
          "type": "address"
        },
        {
          "internalType": "uint256",
          "name": "amount",
          "type": "uint256"
        }
      ],
      "name": "transferFrom",
      "outputs": [],
      "stateMutability": "nonpayable",
      "type": "function"
    }
  ],
  "bytecode": "0x608060405234801561000f575f5ffd5b50604051610c85380380610c8583398101604081905261002e916100eb565b5f61003983826101d4565b50600161004682826101d4565b50505061028e565b634e487b7160e01b5f52604160045260245ffd5b5f82601f830112610071575f5ffd5b81516001600160401b0381111561008a5761008a61004e565b604051601f8201601f19908116603f011681016001600160401b03811182821017156100b8576100b861004e565b6040528181528382016020018510156100cf575f5ffd5b8160208501602083015e5f918101602001919091529392505050565b5f5f604083850312156100fc575f5ffd5b82516001600160401b03811115610111575f5ffd5b61011d85828601610062565b602085015190935090506001600160401b0381111561013a575f5ffd5b61014685828601610062565b9150509250929050565b600181811c9082168061016457607f821691505b60208210810361018257634e487b7160e01b5f52602260045260245ffd5b50919050565b601f8211156101cf57805f5260205f20601f840160051c810160208510156101ad5750805b601f840160051c820191505b818110156101cc575f81556001016101b9565b50505b505050565b81516001600160401b038111156101ed576101ed61004e565b610201816101fb8454610150565b84610188565b6020601f821160018114610233575f831561021c5750848201515b5f19600385901b1c1916600184901b1784556101cc565b5f84815260208120601f198516915b828110156102625787850151825560209485019460019092019101610242565b508482101561027f57868401515f19600387901b60f8161c191681555b50505050600190811b01905550565b6109ea8061029b5f395ff3fe608060405234801561000f575f5ffd5b5060043610610085575f3560e01c806370a082311161005857806370a08231146100e257806395d89b4114610118578063a9059cbb14610120578063dd62ed3e14610133575f5ffd5b806306fdde0314610089578063095ea7b3146100a757806323b872dd146100bc57806340c10f19146100cf575b5f5ffd5b610091610146565b60405161009e91906107f1565b60405180910390f35b6100ba6100b5366004610841565b6101d5565b005b6100ba6100ca366004610869565b61027f565b6100ba6100dd366004610841565b61056a565b61010a6100f03660046108a3565b6001600160a01b03165f9081526002602052604090205490565b60405190815260200161009e565b6100916105c0565b6100ba61012e366004610841565b6105cf565b61010a6101413660046108c3565b610777565b60605f8054610154906108f4565b80601f0160208091040260200160405190810160405280929190818152602001828054610180906108f4565b80156101cb5780601f106101a2576101008083540402835291602001916101cb565b820191905f5260205f20905b8154815290600101906020018083116101ae57829003601f168201915b5050505050905090565b6001600160a01b0382166102045760405162461bcd60e51b81526004016101fb9061092c565b60405180910390fd5b335f9081526003602090815260408083206001600160a01b038616845290915281208054839290610236908490610977565b90915550506040518181526001600160a01b0383169033907f6e11fb1b7f119e3f2fa29896ef5fdf8b8a2d0d4df6fe90ba8668e7d8b2ffa25e9060200160405180910390a35050565b6001600160a01b0383166102cc5760405162461bcd60e51b8152602060048201526014602482015273496e76616c69642061646472657373207a65726f60601b60448201526064016101fb565b6001600160a01b0382166103195760405162461bcd60e51b8152602060048201526014602482015273496e76616c69642061646472657373207a65726f60601b60448201526064016101fb565b5f81116103595760405162461bcd60e51b815260206004820152600e60248201526d125b9d985b1a5908185b5bdd5b9d60921b60448201526064016101fb565b6001600160a01b038084165f90815260036020908152604080832093861683529290522054818110156103c75760405162461bcd60e51b8152602060048201526016602482015275496e73756666696369656e7420616c6c6f77616e636560501b60448201526064016101fb565b6040516370a0823160e01b81526001600160a01b03851660048201525f9030906370a0823190602401602060405180830381865afa15801561040b573d5f5f3e3d5ffd5b505050506040513d601f19601f8201168201806040525081019061042f919061098a565b9050828110156104815760405162461bcd60e51b815260206004820152601a60248201527f496e73756666696369656e74206f776e65722062616c616e636500000000000060448201526064016101fb565b6001600160a01b038086165f908152600360209081526040808320938816835292905290812080548592906104b79084906109a1565b90915550506001600160a01b0385165f90815260026020526040812080548592906104e39084906109a1565b90915550506001600160a01b0384165f908152600260205260408120805485929061050f908490610977565b92505081905550836001600160a01b0316856001600160a01b03167fc0d84ce5c7ff9ca21adb0f8436ff3f4951b4bb78c4e2fae2b6837958b3946ffd8560405161055b91815260200190565b60405180910390a35050505050565b6001600160a01b0382166105905760405162461bcd60e51b81526004016101fb9061092c565b6001600160a01b0382165f90815260026020526040812080548392906105b7908490610977565b90915550505050565b606060018054610154906108f4565b6001600160a01b0382166105f55760405162461bcd60e51b81526004016101fb9061092c565b5f81116106445760405162461bcd60e51b815260206004820181905260248201527f416d6f756e74206d7573742062652067726561746572207468616e207a65726f60448201526064016101fb565b6040516370a0823160e01b81523360048201525f9030906370a0823190602401602060405180830381865afa15801561067f573d5f5f3e3d5ffd5b505050506040513d601f19601f820116820180604052508101906106a3919061098a565b9050818110156106ec5760405162461bcd60e51b8152602060048201526014602482015273496e73756666696369656e742062616c616e636560601b60448201526064016101fb565b335f908152600260205260408120805484929061070a9084906109a1565b90915550506001600160a01b0383165f9081526002602052604081208054849290610736908490610977565b909155505060405182906001600160a01b0385169033907fddf252ad1be2c89b69c2b068fc378daa952ba7f163c4a11628f55a4df523b3ef905f90a4505050565b5f6001600160a01b03831661079e5760405162461bcd60e51b81526004016101fb9061092c565b6001600160a01b0382166107c45760405162461bcd60e51b81526004016101fb9061092c565b506001600160a01b038083165f908152600360209081526040808320938516835292905220545b92915050565b602081525f82518060208401528060208501604085015e5f604082850101526040601f19601f83011684010191505092915050565b80356001600160a01b038116811461083c575f5ffd5b919050565b5f5f60408385031215610852575f5ffd5b61085b83610826565b946020939093013593505050565b5f5f5f6060848603121561087b575f5ffd5b61088484610826565b925061089260208501610826565b929592945050506040919091013590565b5f602082840312156108b3575f5ffd5b6108bc82610826565b9392505050565b5f5f604083850312156108d4575f5ffd5b6108dd83610826565b91506108eb60208401610826565b90509250929050565b600181811c9082168061090857607f821691505b60208210810361092657634e487b7160e01b5f52602260045260245ffd5b50919050565b6020808252601d908201527f496e76616c69642061646472657373207a65726f206465746563746564000000604082015260600190565b634e487b7160e01b5f52601160045260245ffd5b808201808211156107eb576107eb610963565b5f6020828403121561099a575f5ffd5b5051919050565b818103818111156107eb576107eb61096356fea2646970667358221220b0703438aafae4114673b190ad4a40b298a19458b34ab4eb2c94c79245b1157e64736f6c634300081c0033",
  "linkReferences": {},
  "deployedLinkReferences": {},
  "immutableReferences": {},
  "inputSourceName": "project/contracts/tokenContract.sol",
  "buildInfoId": "solc-0_8_28-6a680883918d344028756d609597faa3a2cd273c"
}